:020000040000FA
:100000000C94C6010C94F7010C94F7010C94F701C1
:100010000C94F7010C94F7010C94F7010C94F70180
:100020000C94F7010C94F7010C94F7010C94F70170
:100030000C94F7010C94F7010C94F7010C94F70160
:100040000C94F7010C94F7010C94F7010C94F70150
:100050000C94F7010C94F7010C94F7010C947C0AB2
:100060000C94F7010C94460A0C941C0A0C94F701AA
:100070000C94F7010C94F7010C94F7010C94F70120
:100080000C94F7010C94F7010C94F7010C94F70110
:100090000C94F7010C94F7010C94F7010C94C60A28
:1000A0000C94F7010C94F7010C94F7010C94F701F0
:1000B0000C94F7010C94F7010C94F7010C94F701E0
:1000C0000C94F7010C94F7010C94F7010C94F701D0
:1000D0000C94F7010C94F7010C94F7010C94F701C0
:1000E0000C94F7010C94C1060C94FB010C94BE0314
:1000F0000C9491030C94CC060C9491020C94B403D0
:100100000C94FB080C9459020C94F30E0C94D70534
:100110000C94DE050C94FA010C94F10E0C94C603B9
:100120000C94A0030C9428020C94D20E0C94A506F7
:100130000C94AA030C9499030C94F50E0C943702BA
:100140000C94E90E0C94A6030C94FD0E0C94B003D1
:100150000C9495030C94DC090C94A4060C94F901FE
:100160000C947F030C94CC030C94B8030C94EB0E0A
:100170000C94FB0E0C94FF0E0C940B060C947A035B
:100180000C94F9020C94F70E0C949D030C94C2038A
:100190000C944B020C94B5050C94D0030C94070CF2
:1001A0000C94EF0E0C94B5080C94B3060C94ED0E61
:1001B0000C943A060C94B4050C94E60E0C94F90ECB
:1001C0000C941A0A0C94C405000021002400270096
:1001D0002A002D0030003300010100000401070156
:1001E0000A0100002200250028002B002E0031000B
:1001F000340002010000050108010B010505050599
:10020000070508080808020202020A0A080804048E
:1002100004040101010101010101030303030303BC
:100220000303040707070C0C0C0C0C0C0C0C02024B
:10023000020206060606060606060B0B0B0B0B0B48
:100240000B0B0102102020080810204010204080D5
:10025000020102010804020101020408102040808A
:100260008040201008040201800402018040201018
:100270000804020108040201010204081020408061
:10028000010204081020408000000A0B02090C0D36
:100290000E08070304010000000000000000000039
:1002A000000000000000000000000000000000004E
:1002B000000000001211100000000000000000000B
:1002C0000000000000000000000000000000546971
:1002D0006D696E672062756467657420286D732987
:1002E0003A200052616E67696E67207374617274A0
:1002F000656400436F756C646E277420737461725B
:10030000742072616E67696E673A200053656E7380
:100310006F722049443A20307800564C35334C31C6
:10032000582073656E736F72204F4B2100457272B7
:100330006F72206F6E20696E6974206F6620564C54
:100340002073656E736F723A200041646166727546
:10035000697420564C35334C31582073656E736F79
:10036000722064656D6F00436F756C646E27742036
:100370006765742064697374616E63653A20004434
:10038000697374616E63653A2000070C11241FBE07
:10039000CFEFD1E2DEBFCDBF00E00CBF12E0A0E0A6
:1003A000B2E0E0E4F1E200E00BBF02C007900D9282
:1003B000A23AB107D9F724E0A2EAB2E001C01D9247
:1003C000A032B207E1F711E0C6ECD1E000E006C0D0
:1003D00021970109802FFE010E94710FC53CD107B2
:1003E00080E00807A9F70E94580C0C949E100C940A
:1003F000000008950895AF92BF92CF92DF92EF92DE
:10040000FF920F931F93CF93DF936C017B018B01BE
:10041000040F151FEB015E01AE18BF08C017D1070E
:1004200059F06991D601ED91FC910190F081E02D98
:10043000C6011995892B79F7C501DF91CF911F91DD
:100440000F91FF90EF90DF90CF90BF90AF90089505
:10045000FC01538D448D252F30E0842F90E0821BCA
:10046000930B541710F0CF96089501970895FC014F
:10047000918D828D981761F0A28DAE0FBF2FB11DA7
:100480005D968C91928D9F5F9F73928F90E00895FF
:100490008FEF9FEF0895FC01918D828D981731F0B9
:1004A000828DE80FF11D858D90E008958FEF9FEF0D
:1004B0000895FC01918D228D892F90E0805C9F4FE3
:1004C000821B91098F739927089585E693E00E9416
:1004D000590221E0892B09F420E0822F0895FC01C4
:1004E000A48DA80FB92FB11DA35ABF4F2C91848D95
:1004F00090E001968F739927848FA689B7892C93F2
:10050000A089B1898C91837080648C93938D848D44
:10051000981306C00288F389E02D80818F7D808347
:100520000895EF92FF920F931F93CF93DF93EC0107
:1005300081E0888F9B8D8C8D98131AC0E889F9898A
:10054000808185FF15C09FB7F894EE89FF8960838D
:10055000E889F98980818370806480839FBF81E00E
:1005600090E0DF91CF911F910F91FF90EF90089550
:10057000F62E0B8D10E00F5F1F4F0F731127E02E2B
:100580008C8D8E110CC00FB607FCFACFE889F98963
:10059000808185FFF5CFCE010E946F02F1CFEB8DF8
:1005A000EC0FFD2FF11DE35AFF4FF0829FB7F89437
:1005B0000B8FEA89FB8980818062CFCF0F931F93D5
:1005C000CF93DF938C01D0E0C0E0F801EC0FFD1F6A
:1005D0006491662341F085E693E00E949102892BA5
:1005E00011F02196F2CFCE01DF91CF911F910F91A3
:1005F0000895CF93DF93EC01888D8823B9F0AA8901
:10060000BB89E889F9898C9185FD03C0808186FDCD
:100610000DC00FB607FCF7CF8C9185FFF2CF80811C
:1006200085FFEDCFCE010E946F02E9CFDF91CF9120
:10063000089580E090E0892B29F00E9465028111E5
:100640000E94000080E090E0892B49F080E090E07B
:10065000892B29F00E94000081110E94000080E097
:1006600090E0892B49F080E090E0892B29F00E94EE
:10067000000081110E94000080E090E0892B49F089
:1006800080E090E0892B29F00E94000081110C94F9
:1006900000000895282F30E0F901E857FD4F9491AC
:1006A000F901EE5BFD4F449124503E4FF901249136
:1006B000222309F435C0992311F191509231F8F4B5
:1006C000E92FF0E08827E859FC4F8F4F0C94710F09
:1006D00099039D037A03910395037F03A003A60367
:1006E000AA03B003B403B803BE03C2037F03C60367
:1006F000CC03D003809180008F7780938000E22F1D
:10070000F0E0EE0FFF1FEE51FE4FA591B4918FB7B1
:10071000F894EC91611148C040954E234C938FBFE3
:100720000895809180008F7DE8CF80918000877F41
:10073000E4CF84B58F7784BDE2CF84B58F7DFBCFC6
:100740008091B0008F778093B000D9CF8091B000B6
:100750008F7DF9CF809190008F7780939000CFCFDD
:10076000809190008F7DF9CF80919000877FF5CFA9
:100770008091A0008F778093A000C1CF8091A000CE
:100780008F7DF9CF8091A000877FF5CF80912001E8
:100790008F7780932001B3CF809120018F7DF9CF97
:1007A00080912001877FF5CF4E2BB8CFCF93DF9379
:1007B00090E0FC01EE5BFD4F249184509E4FFC01C4
:1007C00084918823D1F090E0880F991FFC01E853B1
:1007D000FE4FA591B491FC01EE51FE4FC591D4910D
:1007E00061110EC09FB7F8948C91E22FE0958E2393
:1007F0008C932881E223E8839FBFDF91CF910895F6
:100800008FB7F894EC91E22BEC938FBFF6CF3FB704
:10081000F89480910B0390910C03A0910D03B0917B
:100820000E0326B5A89B05C02F3F19F00196A11D08
:10083000B11D3FBFBA2FA92F982F8827BC01CD012A
:10084000620F711D811D911D42E0660F771F881F89
:10085000991F4A95D1F708958F929F92AF92BF92B8
:10086000CF92DF92EF92FF924B015C010E9407044E
:100870006B017C010E9407046C197D098E099F0998
:10088000683E734081059105A8F321E0821A910822
:10089000A108B10888EEC80E83E0D81EE11CF11C47
:1008A00081149104A104B10429F7FF90EF90DF9027
:1008B000CF90BF90AF909F908F9008952091E302CA
:1008C000260F3327331F21323105ECF420913B03EF
:1008D000FC0190E080E0243069F082E00895A0916E
:1008E000E3022191AC014D535D4FA40FB52FB11D13
:1008F0002C930196861798F38091E302680F60931A
:10090000E30280E0089581E0089510923B0381E0C6
:1009100080933A031092150361E084E10E944A0338
:1009200061E085E10E944A03E9EBF0E080818E7F7F
:10093000808380818D7F808388E48093B80085E404
:100940008093BC000895CF93DF9391E09093C2020F
:100950008823B9F0C091B800D091BA008091BC0052
:100960008A7B8093BC0060E084E10E944A0360E0DF
:1009700085E10E944A030E948504D093BA00C09387
:10098000B800DF91CF9108958F929F92AF92BF925E
:10099000CF92DF92EF92FF920F931F93CF93DF934B
:1009A000D0916403D13208F0D7C0182FC0916303EF
:1009B0000E9407046B017C0180913B0381116BC095
:1009C00082E080933B0310933A038FEF80933903C7
:1009D00010923803D0933703A3E4B3E0E7E1F3E0E8
:1009E00080E0D81391C01092160380911603CC0FAB
:1009F000C82BC093160380911503813009F088C07D
:100A0000109215030E9407046B017C01809116036C
:100A10008093BB0080913D0390913E03A0913F03E2
:100A2000B0914003892B8A2B8B2BA1F00E940704E5
:100A300000913D0310913E0320913F03309140030C
:100A40006C197D098E099F090617170728073907B2
:100A500008F442C08091BC0083FDD8CF85EC809320
:100A6000BC000E9407046B017C0180913B03823033
:100A700009F450C0809139038F3F09F46FC0809111
:100A80003903803209F46CC080913903803309F452
:100A900069C084E026C080913D0390913E03A091FF
:100AA0003F03B0914003892B8A2B8B2B09F484CF11
:100AB0000E94070480903D0390903E03A0903F0366
:100AC000B09040036C197D098E099F098616970620
:100AD000A806B90608F070CF80913C030E94A304D9
:100AE00085E0109242031092640310924103DF915B
:100AF000CF911F910F91FF90EF90DF90CF90BF901B
:100B0000AF909F908F9008959D9191938F5F69CF43
:100B100085EEA5CF80913D0390913E03A0913F03C8
:100B2000B0914003892B8A2B8B2B09F49ECF0E9416
:100B3000070400913D0310913E0320913F03309143
:100B400040036C197D098E099F09061717072807AE
:100B5000390708F08ACFC0CF81E0C3CF80E0C1CF92
:100B600082E0BFCF83E0BDCF0895E0911403809170
:100B70001303E81730F4F0E0EE55FD4F808190E06C
:100B800008958FEF9FEF08959091140380911303C0
:100B90002FEF3FEF981748F4E92FF0E0EE55FD4FA7
:100BA000208130E09F5F90931403C90108958091E4
:100BB000130390911403891B990B0895CF92DF9230
:100BC000EF92FF920F931F93CF93DF937C01CB01A2
:100BD0008A0120914103222389F0EB016B01C40EAD
:100BE000D51ECC15DD0569F06991D701ED91FC9119
:100BF0000190F081E02DC7011995F3CF642F0E9479
:100C00005E04C801DF91CF911F910F91FF90EF908B
:100C1000DF90CF900895CF93DF931F92CDB7DEB7CB
:100C20006983209141032223F9F02091640320324B
:100C300058F021E030E0FC013383228390E080E033
:100C40000F90DF91CF91089580914203E82FF0E05B
:100C5000ED5BFC4F998190838F5F8093420380937B
:100C6000640381E090E0ECCF61E0CE0101960E9448
:100C70005E04F7CF90E080E00895AF92BF92CF92EC
:100C8000DF92EF92FF920F931F93CF93DF931F9208
:100C90001F92CDB7DEB76C015901DC0112968D9120
:100CA0009C9121E020934103669560936303109229
:100CB00042031092640319824A83DC01ED91FC9196
:100CC0000280F381E02D42E050E0BE016F5F7F4F74
:100CD000199575010A0D1B1DF60182819381D701BB
:100CE0006D917D01DC01ED91FC910190F081E02D91
:100CF00019950E151F0581F781E00E94C40480E05C
:100D00000F900F90DF91CF911F910F91FF90EF9077
:100D1000DF90CF90BF90AF9008950F931F93CF9324
:100D2000DF931F92CDB7DEB7298301E010E09E016B
:100D30002F5F3F4FFB0160810E943D060F90DF91C6
:100D4000CF911F910F9108950895FC0184819581A1
:100D500097FD03C060E00E944A036AE070E080E013
:100D600090E00C942C04FC018481958197FD03C0D4
:100D700061E00E944A036AE070E080E090E00C9439
:100D80002C04FC018481958197FD03C060E00E94E2
:100D9000D60390E080E00895FC018481958197FD61
:100DA00003C061E00E94D60390E080E00895FC015A
:100DB00001900020E9F73197AF01481B590BBC01A6
:100DC00085E693E00C94FB018F929F92AF92BF92C5
:100DD0000F931F93CF93DF93CDB7DEB7A1970FB6D5
:100DE000F894DEBF0FBECDBF19A2423008F44AE02E
:100DF0008E010F5D1F4F842E912CB12CA12CA501CB
:100E000094010E944F0FE62FB901CA01EA30F4F4B1
:100E1000E05DD801EE938D01232B242B252B79F750
:100E200090E080E0109719F0CD010E94D706A196BE
:100E30000FB6F894DEBF0FBECDBFDF91CF911F91EB
:100E40000F91BF90AF909F908F900895E95CE1CF94
:100E5000CF93DF930E94DE02EC018BE992E00E94C7
:100E6000D7068C0F9D1FDF91CF910895CF92DF920F
:100E7000EF92FF92CF93DF936C01990FEE08FF087A
:100E8000F7FE1FC06DE285E693E00E949102EC013F
:100E900066277727CB016C197D098E099F094AE0E7
:100EA0000E94E406C80FD91F8BE992E00E94D70682
:100EB0008C0F9D1FDF91CF91FF90EF90DF90CF902F
:100EC00008954AE0C701B6010E94E406EC01ECCFA8
:100ED0004F925F926F927F92BF92CF92DF92EF928A
:100EE000FF920F931F93CF93DF931F921F92CDB763
:100EF000DEB76C01F42E752EB22EE32E162F16954A
:100F000066246394D60112968D919C916092410360
:100F10001093630310924203109264037982FA8261
:100F2000DC01ED91FC910280F381E02D42E050E084
:100F3000BE016F5F7F4F199580E00E94C40481114C
:100F4000E1CF0E9407042B013C0180913B038111FA
:100F500066C0F02E81E080933B0380933A039FEFBD
:100F60009093390310923803900F90933703809336
:100F7000160360911603110F162B10931603809120
:100F80001503813009F091C0109215030E940704E7
:100F90002B013C01809116038093BB0080913D039F
:100FA00090913E03A0913F03B0914003892B8A2B7F
:100FB0008B2BA1F00E94070420913D0330913E034A
:100FC00040913F03509140036419750986099709C0
:100FD000261737074807590708F442C08091BC001C
:100FE00083FDD8CF85EC8093BC000E9407042B01C1
:100FF0003C0180913B03813009F459C08091380352
:10100000801710F4F0903803A7E1B3E0E2EAF2E0D1
:1010100080E08F1551F19D9191938F5FFACF809170
:101020003D0390913E03A0913F03B0914003892B73
:101030008A2B8B2B09F489CF0E94070420913D0352
:1010400030913E0340913F0350914003641975096C
:1010500086099709261737074807590708F075CFFB
:1010600080913C030E94A304F12C10921403F0928F
:1010700013030B2D1E2DF60182819381DC01ED916E
:10108000FC910084F185E02D1995892B91F1F601F1
:1010900082819381DC01ED91FC910284F385E02D46
:1010A0001995F80181938F01E6CF85EE9CCF809151
:1010B0003D0390913E03A0913F03B0914003892BE3
:1010C0008A2B8B2B09F495CF0E94070420913D03B6
:1010D00030913E0340913F035091400364197509DC
:1010E00086099709261737074807590708F081CF5F
:1010F000B7CF80E00F900F90DF91CF911F910F91AC
:10110000FF90EF90DF90CF90BF907F906F905F90B7
:101110004F900895EF92FF920F931F93CF93DF9319
:101120001F921F92CDB7DEB7790119821A8202E0B1
:1011300010E09E012F5F3F4FFB0160810E94680716
:1011400081110AC0298130E0322F22279A81290F8C
:10115000311DF701318320830F900F90DF91CF91E4
:101160001F910F91FF90EF900895CF93DF931F92FF
:101170001F92CDB7DEB71A821982FC016185728594
:101180009E012F5F3F4F4FE051E00E948A08298166
:101190003A8181E090E02C3A3E4E11F490E080E0FC
:1011A0009195819591090F900F90DF91CF910895BE
:1011B0000F931F93CF93DF931F921F92CDB7DEB78C
:1011C0001A8219820EE014E0F801618572859E0191
:1011D0002F5F3F4F4FE051E0C8010E948A082981EC
:1011E0003A81F8018387C9010F900F90DF91CF9169
:1011F0001F910F9108950F931F93CF93DF931F9229
:101200001F92CDB7DEB78B011A821982FC0161856E
:1012100072859E012F5F3F4F46E950E00E948A0889
:1012200049815A8170E060E0F80140835183628314
:101230007383082E000C990B0F900F90DF91CF91C4
:101240001F910F9108950F931F9301E010E0FB0190
:1012500060810E94680791E0811101C090E0892FB0
:1012600081951F910F910895BF92CF92DF92EF92D7
:10127000FF920F931F93CF93DF931F92CDB7DEB7EB
:101280007C016B01FC01618572859E012F5F3F4FE0
:1012900040E350E00E942309B980F701618572851F
:1012A0009E012F5F3F4F41E350E0C7010E94230999
:1012B00081110DC099819170B4FA002700F910E0F6
:1012C000F1E00F2790130EC091E0F60190830F908C
:1012D000DF91CF911F910F91FF90EF90DF90CF9012
:1012E000BF900895F6011082F2CFCF92DF92EF9275
:1012F000FF920F931F93CF93DF931F92CDB7DEB76B
:101300008C01198286E0C82E82E0D82E9DE2E92E5B
:10131000F12CF60121916F01F80161857285A70119
:10132000C8010E948D06FFEFEF1AFF0A88E8E81651
:10133000F10479F7F8016185728520E447E850E00F
:10134000C8010E948D068981811107C0BE016F5FAF
:101350007F4FC8010E943409F6CF1982F8016185D8
:10136000728521E046E850E0C8010E948D06F80130
:101370006185728520E047E850E0C8010E948D0633
:10138000F8016185728529E048E050E0C8010E94BB
:101390008D06F8016185728520E04BE050E0C801C0
:1013A0000E948D060F90DF91CF911F910F91FF90BA
:1013B000EF90DF90CF9008950E947509082E000CE1
:1013C000990B089585ED8093BC0080913D03909129
:1013D0003E03A0913F03B09140030796A11DB11DAC
:1013E00023E0B695A795979587952A95D1F72091F3
:1013F000BC0024FD03C010923B03089540913D03BF
:1014000050913E0360913F0370914003452B462B62
:10141000472B69F30097A105B10541F02AE22A950F
:10142000F1F700C00197A109B109E1CF80913C0318
:101430000C94A3040C9415101F920F920FB60F92E8
:1014400011240BB60F922F933F934F935F936F939B
:101450007F938F939F93AF93BF93EF93FF9385E613
:1014600093E00E946F02FF91EF91BF91AF919F9126
:101470008F917F916F915F914F913F912F910F903D
:101480000BBE0F900FBE0F901F9018951F920F92DA
:101490000FB60F9211240BB60F922F938F939F9339
:1014A000EF93FF93E0917503F09176038081E091D3
:1014B0007B03F0917C0382FD1DC0908180917E03AF
:1014C0008F5F8F7320917F03821741F0E0917E033D
:1014D000F0E0EB59FC4F958F80937E03FF91EF91E5
:1014E0009F918F912F910F900BBE0F900FBE0F9079
:1014F0001F9018958081F2CF1F920F920FB60F9216
:1015000011242F933F938F939F93AF93BF93809119
:10151000070390910803A0910903B0910A03309149
:10152000060323E0230F2D3758F50196A11DB11DA9
:10153000209306038093070390930803A093090365
:10154000B0930A0380910B0390910C03A0910D03BB
:10155000B0910E030196A11DB11D80930B039093D2
:101560000C03A0930D03B0930E03BF91AF919F9115
:101570008F913F912F910F900FBE0F901F90189554
:1015800026E8230F0296A11DB11DD2CF1F920F9204
:101590000FB60F9211240BB60F922F933F934F93D8
:1015A0005F936F937F938F939F93AF93BF93EF93CB
:1015B000FF938091B900887F803609F44DC008F010
:1015C00040C0883209F4A9C028F5803109F49DC0D3
:1015D000C8F4882309F4FBC0883009F496C0FF9151
:1015E000EF91BF91AF919F918F917F916F915F919B
:1015F0004F913F912F910F900BBE0F900FBE0F9008
:101600001F901895883109F488C0803241F7809383
:10161000390314C0803409F49DC040F48033B9F319
:101620008833E9F68093390385ECB0C0803509F43E
:1016300085C0883509F496C0883489F60E94E2098D
:10164000CECF883909F48CC038F5883729F050F4AA
:10165000883611F0803719F683E080933B031092AF
:10166000050357C0883809F47BC0803919F08038E9
:1016700009F0B5CF80910503803208F071C0E09188
:10168000050381E08E0F809305038091BB00F0E09D
:10169000EB51FD4F80833DC0803B39F0E0F4803A50
:1016A00009F479C0883A09F09ACF84E080933B032B
:1016B0001092E4021092E302E0910F03F091100304
:1016C00019958091E30281110FC081E08093E302BC
:1016D0001092C30209C0803C09F4A6CF883C09F4EB
:1016E000A3CF883B09F07BCFE091E40281E08E0F2D
:1016F0008093E402F0E0ED53FD4F80818093BB00C6
:101700009091E4028091E30229C0809116038093B6
:10171000BB0085EC8093BC0062CF90913803809130
:101720003703981758F5E091380381E08E0F8093C6
:101730003803F0E0E95EFC4F8081E9CFE0913803A7
:1017400081E08E0F809338038091BB00F0E0E95E6A
:10175000FC4F808390913803809137039817C8F22B
:1017600085E8D8CFE091380381E08E0F809338036D
:101770008091BB00F0E0E95EFC4F808380913A03EA
:1017800081115CCF81E08093150384EA8093BC00D3
:1017900010923B0324CF85EC8093BC0010923B0356
:1017A00080910503803230F4E0910503F0E0EB51C5
:1017B000FD4F10826091050370E0E0911103F091FC
:1017C000120385EE92E019951092050308CF10924E
:1017D000390334CF0F931F93CF93DF931F921F9240
:1017E000CDB7DEB759834A8302E010E09E012F5F38
:1017F0003F4FAB01FC0160818EE094E00E943D060A
:101800000F900F90DF91CF911F910F910895E5E612
:10181000F3E01382128288EE93E0A0E0B0E08483CC
:101820009583A683B78325E632E03183208325ECB8
:1018300030E03587248724EC30E03787268720EC9A
:1018400030E0318B208B21EC30E0338B228B22EC8B
:1018500030E0358B248B26EC30E0378B268B118ED5
:10186000128E138E148EE2E0F4E0138212828483CF
:101870009583A683B78387E792E091838083EEE028
:10188000F4E01382128288E090E09583848384E1FF
:1018900094E09287818782E586831086178289E8A3
:1018A00092E09183808389E0858788E0848708952A
:1018B000CF93DF931F921F92CDB7DEB7789484B594
:1018C000826084BD84B5816084BD85B5826085BD3C
:1018D00085B5816085BD80916E00816080936E00CA
:1018E00010928100809181008260809381008091BC
:1018F000810081608093810080918000816080936D
:1019000080008091B10084608093B1008091B0002C
:1019100081608093B00080919100826080939100FB
:10192000809191008160809391008091900081600E
:10193000809390008091A10082608093A1008091AB
:10194000A10081608093A1008091A00081608093BC
:10195000A00080912101826080932101809121016A
:10196000816080932101809120018160809320011A
:1019700080917A00846080937A0080917A008260FE
:1019800080937A0080917A00816080937A008091C0
:101990007A00806880937A001092C100E09175030C
:1019A000F091760382E08083E0917103F0917203FD
:1019B0001082E0917303F091740380E180831092B0
:1019C0007D03E0917903F0917A0386E08083E091D2
:1019D0007703F0917803808180618083E0917703C1
:1019E000F0917803808188608083E0917703F091A3
:1019F0007803808180688083E0917703F091780399
:101A000080818F7D80838AE493E00E942807109272
:101A100014031092130310924203109264030E9465
:101A2000850489EF91E09093100380930F038AEF70
:101A300091E0909312038093110380911B048F3FD8
:101A4000C1F061E00E94D60361E080911B040E9416
:101A50004A0360E080911B040E944A0365E070E045
:101A600080E090E00E942C0461E080911B040E94C1
:101A70004A0365E070E080E090E00E942C040E9440
:101A8000850482E094E0909316048093150490936B
:101A90001104809310048EE094E00E94A5068EE06D
:101AA00094E00E94B306609117047091180429E233
:101AB00041E050E08EE094E00E948D06182FE09106
:101AC0001704F091180482E5808311111FC0198258
:101AD00060911704709118049E012F5F3F4F45EEEF
:101AE00050E08EE094E00E942309182F098162E003
:101AF00070E080E090E00E942C04002331F311118B
:101B000005C08EE094E00E947509182F1093190407
:101B1000111181C00E94D8088C3C9A4E09F07BC0FC
:101B20008AE193E00E9428078CE093E00E94DE02A5
:101B30000E94D808BC0190E080E040E10E94E406E9
:101B40008BE992E00E94D706609117047091180407
:101B500020E447E850E08EE094E00E948D068093F8
:101B6000190481116AC083EE92E00E9428076091F7
:101B70001704709118049E012F5F3F4F4BE450E013
:101B80008EE094E00E942309182F29818091170488
:101B9000909118042A3009F062C04DEA50E06EE5D9
:101BA00070E00E94EA0B46EC50E061E670E0809144
:101BB0001704909118040E94EA0B109319048EECFC
:101BC00092E00E94DE0260911704709118049E0159
:101BD0002F5F3F4F4EE550E08EE094E00E948A0870
:101BE00029813A812E3A91E0390709F4D2C008F0F0
:101BF0004CC02135310509F469C0D0F56FE070E0C3
:101C00002D31310509F464C02E31310509F45EC06F
:101C100070E060E05DC08DE293E00E94DE028091A2
:101C20001904082E000C990B0E9436076AE070E038
:101C300080E090E00E942C04F9CF83EF92E00E94B4
:101C4000DE0280911904082E000C990B0E943607C1
:101C50006AE070E080E090E00E942C04F9CF4EEA48
:101C600051E06EE570E00E94EA0B48EE51E09DCF36
:101C70002D3A310509F48DC0263D310519F0203685
:101C8000310531F661E270E023C0213E92E0390770
:101C900009F482C060F42C3C91E0390709F47CC05F
:101CA000293D324009F0B4CF68EC70E011C02F3804
:101CB00094E0390709F473C0213995E0390709F434
:101CC0006EC0213E334009F0A3CFEECF64E170E057
:101CD00080931904882311F070E060E090E080E0C8
:101CE0004AE00E94E4068BE992E00E94D706FF24B6
:101CF000FA948DE0E82E9CE0D92E2BE0C22E39E03C
:101D0000B32E47E0A42E56E0952E65E0862E14E013
:101D100003E072E0372E1982BE016F5F7F4F8EE0C5
:101D200094E00E943409809319048981882309F47E
:101D30004AC060911704709118049E012F5F3F4FB5
:101D400049E850E08EE094E00E942309982FE98151
:101D5000EF71E350E53108F052C0F0E08827EC5411
:101D6000F14F8F4F0C94710FEF0EE90EED0EE60E52
:101D7000F30EEB0ED20EFF0EFF0EF50EFD0EFF0E54
:101D8000FF0EFF0EFF0EF70EF10EFF0EFF0EF90E07
:101D9000FB0E62E370E09CCF64E670E099CF64EFE5
:101DA00071E096CF1982898190931904992349F1A2
:101DB00087E693E00E94DE0280911904082E000C51
:101DC000990B0E9436070E941903A5CF81E08983F1
:101DD000EACF3982E8CF0983E6CF1983E4CF89823D
:101DE000E2CF9982E0CFA982DECFB982DCCF8AE050
:101DF000EECFC982D8CFD982D6CFE982D4CFF982AB
:101E0000D2CF8111D5CF1A821982609117047091B7
:101E100018049E012F5F3F4F46E950E08EE094E0AA
:101E20000E948A0849805A80809319048111C0CF8A
:101E30002FEF4216520609F4BBCF8FE793E00E94C2
:101E4000DE02052C000C660877084AE0C301B201E7
:101E500077FE0DC06DE285E693E00E949102662751
:101E60007727CB0164197509860997094AE00E9412
:101E7000E4068EE992E00E94D7068BE992E00E9488
:101E8000D706609117047091180421E046E850E0ED
:101E90008EE094E00E948D068093190494CFA1E215
:101EA0001A2EAA1BBB1BFD010DC0AA1FBB1FEE1FD4
:101EB000FF1FA217B307E407F50720F0A21BB30B1F
:101EC000E40BF50B661F771F881F991F1A9469F79B
:101ED00060957095809590959B01AC01BD01CF01F7
:101EE0000895EE0FFF1F881F8BBF0790F691E02D1E
:101EF00019940F931F93CF93DF938230910510F4C1
:101F000082E090E0E0911E04F0911F0430E020E0B8
:101F1000B0E0A0E0309799F42115310509F44AC0EA
:101F2000281B390B24303105D8F58A819B81611536
:101F3000710589F1FB0193838283FE0111C0408109
:101F400051810281138148175907E0F0481759075A
:101F500099F4109761F012960C93129713961C93B4
:101F60003296CF01DF91CF911F910F910895009389
:101F70001E0410931F04F4CF2115310551F04217B0
:101F8000530738F0A901DB019A01BD01DF01F80117
:101F9000C1CFEF01F9CF90931F0480931E04CDCFE2
:101FA000FE01E20FF31F819391932250310939838F
:101FB0002883D7CF20911C0430911D04232B41F49A
:101FC000209102023091030230931D0420931C04DF
:101FD00020910002309101022115310541F42DB705
:101FE0003EB74091040250910502241B350BE0914D
:101FF0001C04F0911D04E217F307A0F42E1B3F0B05
:102000002817390778F0AC014E5F5F4F241735076A
:1020100048F04E0F5F1F50931D0440931C048193A2
:1020200091939FCFF0E0E0E09CCFCF93DF930097B8
:10203000E9F0FC01329713821282A0911E04B09144
:102040001F04ED0130E020E01097A1F420813181E0
:10205000820F931F20911C0430911D04281739070B
:1020600009F061C0F0931D04E0931C04DF91CF914F
:102070000895EA01CE17DF07E8F54A815B819E01EA
:1020800041155105B1F7E901FB83EA834991599163
:10209000C40FD51FEC17FD0761F480819181029672
:1020A000840F951FE90199838883828193819B83A3
:1020B0008A83F0E0E0E012968D919C91139700974F
:1020C000B9F52D913C911197CD010296820F931F86
:1020D00020911C0430911D042817390739F63097D8
:1020E00051F510921F0410921E04B0931D04A0938A
:1020F0001C04BCCFD383C28340815181840F951FC0
:10210000C817D90761F44E5F5F4F88819981480FE6
:10211000591F518340838A819B8193838283211538
:10212000310509F0B0CFF0931F04E0931E049ECF59
:10213000FD01DC01C0CF13821282D7CFF894FFCF0C
:1021400000002004800000000001020002080008D6
:1021500010010100000000FF000F0000000000203F
:102160000B0000020A2100000500000000C800006A
:1021700038FF010008000001CC0F01F10D016800DB
:102180008008B8000000000F890000000000000077
:10219000010F0D0E0E000002C7FF9B0000000100A2
:1021A00000000000009102FB012802F902590237E9
:1021B000024B02000000000B06DE053A06B405D70C
:1021C00005C405B50500000000DC09B508FB08A43E
:1021D000061A0ACC06C106B306A5060D0A00206D34
:0221E0006D0090
:020000040003F7
:10E000000D9489F10D94B2F10D94B2F10D94B2F129
:10E010000D94B2F10D94B2F10D94B2F10D94B2F1F0
:10E020000D94B2F10D94B2F10D94B2F10D94B2F1E0
:10E030000D94B2F10D94B2F10D94B2F10D94B2F1D0
:10E040000D94B2F10D94B2F10D94B2F10D94B2F1C0
:10E050000D94B2F10D94B2F10D94B2F10D94B2F1B0
:10E060000D94B2F10D94B2F10D94B2F10D94B2F1A0
:10E070000D94B2F10D94B2F10D94B2F10D94B2F190
:10E080000D94B2F10D94B2F10D94B2F10D94B2F180
:10E090000D94B2F10D94B2F10D94B2F10D94B2F170
:10E0A0000D94B2F10D94B2F10D94B2F10D94B2F160
:10E0B0000D94B2F10D94B2F10D94B2F10D94B2F150
:10E0C0000D94B2F10D94B2F10D94B2F10D94B2F140
:10E0D0000D94B2F10D94B2F10D94B2F10D94B2F130
:10E0E0000D94B2F141546D656761323536300041AF
:10E0F000726475696E6F206578706C6F72657220DE
:10E1000073746B3530305632206279204D4C530099
:10E11000426F6F746C6F616465723E004875683F52
:10E1200000436F6D70696C6564206F6E203D200048
:10E130004350552054797065202020203D20005FF9
:10E140005F4156525F415243485F5F3D2000415658
:10E1500052204C696243205665723D20004743437C
:10E160002056657273696F6E203D20004350552024
:10E1700049442020202020203D20004C6F7720663D
:10E18000757365202020203D20004869676820665F
:10E190007573652020203D200045787420667573D6
:10E1A00065202020203D20004C6F636B2066757336
:10E1B000652020203D20004D617220203720323024
:10E1C000313300312E362E3800342E332E350056A2
:10E1D00023202020414444522020206F7020636F70
:10E1E00064652020202020696E73747275637469E1
:10E1F0006F6E2061646472202020496E74657272B3
:10E20000757074006E6F20766563746F7200726A49
:10E210006D702020006A6D70200057686174207056
:10E220006F72743A00506F7274206E6F7420737541
:10E2300070706F72746564004D7573742062652030
:10E2400061206C6574746572002000577269747483
:10E25000696E672045450052656164696E672045B7
:10E26000450045452065727220636E743D00504F35
:10E27000525400303D5A65726F2061646472003FF1
:10E280003D43505520737461747300403D454550C3
:10E29000524F4D207465737400423D426C696E6B41
:10E2A000204C454400453D44756D70204545505215
:10E2B0004F4D00463D44756D7020464C415348001B
:10E2C000483D48656C70004C3D4C69737420492F83
:10E2D0004F20506F72747300513D51756974005234
:10E2E0003D44756D702052414D00563D73686F7707
:10E2F00020696E7465727275707420566563746FF0
:10E30000727300593D506F727420626C696E6B00BD
:10E310002A0011241FBECFEFD1E2DEBFCDBF01E046
:10E320000CBF12E0A0E0B2E0EEE1FDEF03E00BBFB6
:10E3300002C007900D92A030B107D9F712E0A0E01B
:10E34000B2E001C01D92AE30B107E1F70F9460F367
:10E350000D948DFE01E20EBF0FEF0DBF11241FBE05
:10E360000D9460F30D9400F020E030E040ED57E0B4
:10E3700005C0FA013197F1F72F5F3F4F2817390792
:10E38000C0F308959C01260F311DC901A0E0B0E043
:10E390002F5F3F4FABBFFC018791882361F08093D3
:10E3A000C6008091C00086FFFCCF8091C0008064D1
:10E3B0008093C000EACF08958DE08093C6008091DD
:10E3C000C00086FFFCCF8091C00080648093C000B5
:10E3D0008AE08093C6008091C00086FFFCCF8091C8
:10E3E000C00080648093C00008950F94C2F10F9420
:10E3F000DCF10895FC019081992359F09093C600B7
:10E400008091C00086FFFCCF8091C0008064809323
:10E41000C0003196992379F70895282F982F929567
:10E420009F70892F805D8A3308F0895F8093C600D2
:10E430008091C00086FFFCCF8091C00080648093F3
:10E44000C000822F8F70982F905D9A3308F0995FEB
:10E450009093C6008091C00086FFFCCF8091C000E1
:10E4600080648093C00008959C01FB01853691056E
:10E470001CF46330710594F0C90164E670E00F94F8
:10E480002EFE605D7F4F6093C6008091C00086FFC6
:10E49000FCCF8091C00080648093C0002B30310598
:10E4A00014F43297B4F0C90164E670E00F942EFEC4
:10E4B0006AE070E00F942EFE605D7F4F6093C600AF
:10E4C0008091C00086FFFCCF8091C0008064809363
:10E4D000C000C9016AE070E00F942EFEC0968093E0
:10E4E000C6008091C00086FFFCCF8091C000806490
:10E4F0008093C00008951F93182F8EE692EE60E07F
:10E500000F94C2F11093C6008091C00086FFFCCF2B
:10E510008091C00080648093C0000F94DCF11F9153
:10E5200008952F923F924F925F926F927F928F92B7
:10E530009F92AF92BF92CF92DF92EF92FF920F9392
:10E540001F93DF93CF93CDB7DEB762970FB6F894E2
:10E55000DEBF0FBECDBF382E622ECA01DB015C01CB
:10E560006D01772420E2222E2E010894411C511CBB
:10E570008BC081E0A81680E0B80681E0C80680E084
:10E58000D80628F0C601AA27BB270F940DF2BB2797
:10E59000AD2D9C2D8B2D0F940DF28A2D0F940DF225
:10E5A0002092C6008091C00086FFFCCF8091C00001
:10E5B00080648093C0009DE29093C6008091C0006B
:10E5C00086FFFCCF8091C00080648093C0002092C1
:10E5D000C6008091C00086FFFCCF8091C00080649F
:10E5E0008093C00019828601750188249924A1E0D6
:10E5F0003A1651F03A1620F0B2E03B1661F409C029
:10E600000BBFF701779007C0C7010F9477FE782EF4
:10E6100002C0F7017080872D0F940DF22092C60082
:10E620008091C00086FFFCCF8091C0008064809301
:10E63000C000872D8052F401EF70F0708F3520F408
:10E64000E40DF51D708204C0E40DF51D8EE280839B
:10E650000894E11CF11C011D111D0894811C911CE2
:10E6600090E18916910409F0C2CF80E190E0A0E02A
:10E67000B0E0A80EB91ECA1EDB1E198AC2010F9493
:10E68000FAF10F94DCF16A94662009F072CF629679
:10E690000FB6F894DEBF0FBECDBFCF91DF911F91B3
:10E6A0000F91FF90EF90DF90CF90BF90AF909F9031
:10E6B0008F907F906F905F904F903F902F90089534
:10E6C0002F923F924F925F926F927F928F929F9282
:10E6D000AF92BF92CF92DF92EF92FF920F931F9370
:10E6E000DF93CF93CDB7DEB7CD53D1400FB6F894BB
:10E6F000DEBF0FBECDBF01E20EBF0FEF0DBF94B75F
:10E70000F894A89514BE80916000886180936000A1
:10E7100010926000789493FF05C0E0910002F091A0
:10E7200001021995279A2F9A8091C00082608093E8
:10E73000C00080E18093C40088E18093C1000000A4
:10E74000EE24FF24870144E0A42EB12CCC24DD2448
:10E7500024C0C5010197F1F70894E11CF11C011DCB
:10E76000111D21E2E2162EE4F20620E0020720E06D
:10E77000120718F031E0C32ED12CC801B70127ECE5
:10E780003BE140E050E00F9441FE611571058105C9
:10E79000910519F485B1805885B98091C00087FD35
:10E7A00003C0C114D104A9F2A6014F5F5F4FC25E3E
:10E7B000DE4F59834883CE51D140C25EDE4F8881FF
:10E7C0009981CE51D140019711F00D9410FEC05D9A
:10E7D000DE4F19821882C053D14060E0C15DDE4F28
:10E7E0001882CF52D14088249924C35DDE4F19820C
:10E7F0001882CD52D140C05EDE4F188219821A8233
:10E800001B82C052D140CE5CDE4F188219821A8220
:10E810001B82C253D140EE24FF2487010BBFF701B6
:10E8200007911691C45CDE4F19830883CC53D14005
:10E830000D940BFEC25EDE4F28813981CE51D1404E
:10E840002130310509F52091C600C25EDE4F1982E4
:10E850001882CE51D14022C02F5F3F4F4F4F5F4FA4
:10E86000213082E138078AE7480780E0580780F0C6
:10E87000C45CDE4FE881F981CC53D140EF5FFF4F9C
:10E8800019F0EE27FF27099420E030E040E050E047
:10E890008091C00087FFE0CF2091C600C35DDE4FAE
:10E8A00048815981CD52D1404F5F5F4FC35DDE4FEC
:10E8B00059834883CD52D140213209F063C64A3092
:10E8C000510508F05FC60894811C911C53E0851621
:10E8D000910409F059C600E010E018C081E280936D
:10E8E000C6008091C00086FFFCCF8091C00080648C
:10E8F0008093C0002F5F3F4F2931310579F70F9486
:10E90000DCF10F5F1F4F0530110519F020E030E0FA
:10E91000E5CF10920A0210920B0210920C02109294
:10E920000D02109206021092070210920802109235
:10E930000902109202021092030210920402109235
:10E9400005028FEE90EE60E00F94F5F180E191EE1C
:10E9500060E00F94C2F18091C00087FFFCCF9091DE
:10E96000C600903608F09F759032B8F09093C600BC
:10E970008091C00086FFFCCF8091C00080648093AE
:10E98000C000A0E2A093C6008091C00086FFFCCF2B
:10E990008091C00080648093C000983409F4D7C18E
:10E9A0009934B8F4923409F459C1933458F490333B
:10E9B00019F1903308F4E3C59F33A1F1903409F0C5
:10E9C000DEC5BDC0953409F470C1963409F0D7C5D1
:10E9D00098C1923509F42BC2933538F49C3409F46C
:10E9E000F5C1913509F0CBC518C2963509F445C279
:10E9F000993509F0C4C567C483E792EE62E00F94CD
:10EA0000F5F110920602109207021092080210927D
:10EA1000090210920A0210920B0210920C0210923C
:10EA20000D0213C18FE792EE62E00F94F5F18FEEC5
:10EA300090EE60E00F94F5F181E291EE60E00F94CA
:10EA4000C2F187EB91EE60E00F94F5F180E391EE77
:10EA500060E00F94C2F184EE90EE60E00F94F5F167
:10EA60008FE391EE60E00F94C2F186E090E061E008
:10EA700070E00F9434F20F94DCF18DE591EE60E0DC
:10EA80000F94C2F189EC91EE60E00F94F5F18EE401
:10EA900091EE60E00F94C2F183EC91EE60E00F9490
:10EAA000F5F18CE691EE60E00F94C2F18EE10F94E7
:10EAB0000DF288E90F940DF281E00F940DF20F949E
:10EAC000DCF18BE791EE60E00F94C2F119E0E0E039
:10EAD000F0E010935700E4918E2F0F940DF20F94F5
:10EAE000DCF18AE891EE60E00F94C2F1E3E0F0E03F
:10EAF00010935700E4918E2F0F940DF20F94DCF1D8
:10EB000089E991EE60E00F94C2F1E2E0F0E0109349
:10EB10005700E4918E2F0F940DF20F94DCF188EAE8
:10EB200091EE60E00F94C2F1E1E0F0E01093570045
:10EB30001491812F0F940DF20F94DCF107CF8BE825
:10EB400092EE62E00F94F5F18BE492EE60E00F94A8
:10EB5000F5F10F94DCF100E010E019C0C8016F2D51
:10EB60000F947FFEFF2031F489E492EE60E00F9471
:10EB7000C2F10BC0F092C6008091C00086FFFCCFAE
:10EB80008091C00080648093C0000F5F1F4FC80158
:10EB900081519F41A0E0B0E0ABBFFC01F790BAE229
:10EBA000FB1621F0E2E000301E07C1F60F94DCF105
:10EBB0000F94DCF187E592EE60E00F94F5F10F948D
:10EBC000DCF1CC24DD2400E010E01EC0C8010F946D
:10EBD00077FEF82E882331F489E492EE60E00F94FA
:10EBE000C2F10BC08093C6008091C00086FFFCCFAD
:10EBF0008091C00080648093C000FE1419F00894D6
:10EC0000C11CD11C0F5F1F4FC80181519F41A0E063
:10EC1000B0E0ABBFFC01E790FAE2EF1621F022E092
:10EC20000030120799F60F94DCF10F94DCF182E6C4
:10EC300092EE60E00F94C2F1C60161E070E00F94C3
:10EC400034F20F94DCF10F94DCF110920202109276
:10EC50000302109204021092050278CE89E992EE26
:10EC600062E00F94F5F1279A2F9A16C02F9880E052
:10EC700090E0E0EDF7E03197F1F7019684369105E9
:10EC8000C1F72F9A80E090E0E0EDF7E03197F1F7DF
:10EC9000019684369105C1F78091C00087FFE6CFC9
:10ECA0008091C00087FFFCCF64C485EA92EE62E0E9
:10ECB0000F94F5F140910202509103026091040219
:10ECC0007091050281E020E10F9491F2809102029F
:10ECD00090910302A0910402B091050280509F4FD1
:10ECE000AF4FBF4F8093020290930302A0930402A0
:10ECF000B093050280509041A040B04008F426CE69
:10ED0000A4CF83EB92EE62E00F94F5F140910602FE
:10ED100050910702609108027091090280E020E1A1
:10ED20000F9491F28091060290910702A09108023F
:10ED3000B091090280509F4FAF4FBF4F80930602A2
:10ED400090930702A0930802B0930902FFCD80ECD4
:10ED500092EE62E00F94F5F183E792EE60E00F949B
:10ED6000F5F18FE792EE60E00F94F5F18BE892EE0B
:10ED700060E00F94F5F189E992EE60E00F94F5F10F
:10ED800085EA92EE60E00F94F5F183EB92EE60E09D
:10ED90000F94F5F180EC92EE60E00F94F5F187ECC2
:10EDA00092EE60E00F94F5F188ED92EE60E00F9442
:10EDB000F5F18FED92EE60E00F94F5F18AEE92EEB0
:10EDC00060E00F94F5F183E093EEBDCD87EC92EE19
:10EDD00062E00F94F5F181E40F947BF282E40F94EA
:10EDE0007BF283E40F947BF284E40F947BF285E45E
:10EDF0000F947BF286E40F947BF287E40F947BF20E
:10EE000088E40F947BF28AE40F947BF28BE40F94F6
:10EE10007BF28CE40F947BF299CD88ED92EE62E068
:10EE20000F94F5F1772473948824992409C48FED05
:10EE300092EE62E00F94F5F140910A0250910B02BC
:10EE400060910C0270910D0282E020E10F9491F22A
:10EE500080910A0290910B02A0910C02B0910D02D8
:10EE600080509F4FAF4FBF4F80930A0290930B0289
:10EE7000A0930C02B0930D0269CD8AEE92EE62E08F
:10EE80000F94F5F184EE90EE60E00F94F5F18FECC5
:10EE900091EE60E00F94F5F1662477244301CC5D98
:10EEA000DE4F19821882C452D140D401C301B695F5
:10EEB000A79597958795CA5DDE4F88839983AA8326
:10EEC000BB83C652D140CC5DDE4FA881B981C4520C
:10EED000D1401196CC5DDE4FB983A883C452D14096
:10EEE000CD0162E070E00F9434F2B0E2B093C6005E
:10EEF0008091C00086FFFCCF8091C0008064809329
:10EF0000C000EDE2E093C6008091C00086FFFCCF18
:10EF10008091C00080648093C000F0E2F093C6004E
:10EF20008091C00086FFFCCF8091C00080648093F8
:10EF3000C000CA5DDE4FE880F9800A811B81C6529D
:10EF4000D140BB27A12F902F8F2D0F940DF2CA5DBA
:10EF5000DE4F8881C652D1400F940DF2B0E2FB2EF5
:10EF6000F092C6008091C00086FFFCCF8091C00067
:10EF700080648093C0000DE30093C6008091C000C0
:10EF800086FFFCCF8091C00080648093C00010E2B7
:10EF90001093C6008091C00086FFFCCF8091C00016
:10EFA00080648093C0008BBEF3012791C65DDE4F65
:10EFB0002883CA52D140A22EBB24CC24DD2408943D
:10EFC000611C711C811C911C8BBEF3018791282E42
:10EFD0003324442455240894611C711C811C911C09
:10EFE0008BBEF3013791C55DDE4F3883CB52D140E4
:10EFF0000894611C711C811C911C8BBEF30147910C
:10F00000C45DDE4F4883CC52D140ADEFEA2EAFEF66
:10F01000FA2EAFEF0A2FAFEF1A2F6E0C7F1C801E57
:10F02000911E142D032DF22CEE24EA0CFB1C0C1D5A
:10F030001D1D0F940DF220E22093C6008091C000A8
:10F0400086FFFCCF8091C00080648093C000C65DC5
:10F05000DE4F8881CA52D1400F940DF230E23093D6
:10F06000C6008091C00086FFFCCF8091C000806404
:10F070008093C000C45DDE4F8881CC52D1400F9494
:10F080000DF240E24093C6008091C00086FFFCCFA5
:10F090008091C00080648093C000C55DDE4F888190
:10F0A000CB52D1400F940DF250E25093C6008091A4
:10F0B000C00086FFFCCF8091C00080648093C000B8
:10F0C0008FEFE8168FEFF80680E0080780E018075A
:10F0D00031F484E092EE60E00F94C2F1DFC0D80119
:10F0E000C7018070907CA070B0708050904CA040A0
:10F0F000B040D1F52FEF3FE340E050E0E222F322B1
:10F1000004231523CA5DDE4FA880B980CA80DB8046
:10F11000C652D140AE0CBF1CC01ED11EAA0CBB1CD7
:10F12000CC1CDD1C8EE092EE60E00F94C2F1BB2798
:10F13000A12F902F8F2D0F940DF28E2D0F940DF285
:10F1400030E23093C6008091C00086FFFCCF8091F2
:10F15000C00080648093C0004EE34093C60080915D
:10F16000C00086FFFCCF87C08EE09EEFA0E0B0E03D
:10F17000E822F9220A231B239CE0E91694E9F90608
:10F1800090E0090790E0190709F088C0C45DDE4FE0
:10F19000A881CC52D140EA2EFF2400E010E0102FCD
:10F1A0000F2DFE2CEE24C55DDE4FB881CB52D14031
:10F1B000EB0EF11C011D111DD601C501817090706F
:10F1C000A070B070DC0199278827E80EF91E0A1F8D
:10F1D0001B1F20EF30E040E050E0A222B322C42207
:10F1E000D52241E1AA0CBB1CCC1CDD1C4A95D1F7F1
:10F1F000EA0CFB1C0C1D1D1D81E090E0A0E0B0E0BE
:10F20000282239224A225B2235E1220C331C441C7D
:10F21000551C3A95D1F7E20CF31C041D151D57013E
:10F220006801AA0CBB1CCC1CDD1C85E192EE60E0E1
:10F230000F94C2F1C801AA27BB270F940DF2BB2778
:10F24000A12F902F8F2D0F940DF28E2D0F940DF274
:10F2500090E29093C6008091C00086FFFCCF809121
:10F26000C00080648093C000AEE3A093C60080918C
:10F27000C00086FFFCCF8091C00080648093C000F6
:10F28000C601AA27BB270F940DF2BB27AD2D9C2DDD
:10F290008B2D0F940DF28A2D0F940DF20F94DCF14B
:10F2A000CC5DDE4FE881F981C452D140F99709F471
:10F2B0004DCBF4E0EF2EF12C012D112D6E0C7F1CA7
:10F2C000801E911EF2CD83E093EE62E00F94F5F183
:10F2D0008AE192EE60E00F94C2F18091C00087FF56
:10F2E000FCCF1091C6001F751093C6008091C0001E
:10F2F00086FFFCCF8091C00080648093C0000F9493
:10F30000DCF1812F81548A3108F036C1163409F4BA
:10F3100095C0173490F4133409F44EC0143430F40B
:10F320001134F1F0123409F01DC130C0143409F465
:10F3300059C0153409F016C16BC01A3409F4C4C0A1
:10F340001B3438F4173409F48FC0183409F00AC19B
:10F35000A1C01B3409F4D2C01C3409F003C1E8C0B9
:10F360008FEF81B90DC082B1809582B980E090E0C5
:10F37000E0EDF7E03197F1F70196883C9105C1F790
:10F380008091C00087FFEFCF12B8EFC08FEF84B934
:10F390000DC085B1809585B980E090E0E0EDF7E0A3
:10F3A0003197F1F70196883C9105C1F78091C00033
:10F3B00087FFEFCF15B8D9C08FEF87B90DC088B1DF
:10F3C000809588B980E090E0E0EDF7E03197F1F7C3
:10F3D0000196883C9105C1F78091C00087FFEFCF6F
:10F3E00018B8C3C08FEF8AB90DC08BB180958BB9A7
:10F3F00080E090E0E0EDF7E03197F1F70196883C8E
:10F400009105C1F78091C00087FFEFCF1BB8ADC059
:10F410008FEF8DB90DC08EB180958EB980E090E0F0
:10F42000E0EDF7E03197F1F70196883C9105C1F7DF
:10F430008091C00087FFEFCF1EB897C08FEF80BBD1
:10F440000DC081B3809581BB80E090E0E0EDF7E0F6
:10F450003197F1F70196883C9105C1F78091C00082
:10F4600087FFEFCF11BA81C08FEF83BB0DC084B38C
:10F47000809584BB80E090E0E0EDF7E03197F1F714
:10F480000196883C9105C1F78091C00087FFEFCFBE
:10F4900014BA6BC08FEF809301010FC080910201FD
:10F4A00080958093020180E090E0E0EDF7E03197F5
:10F4B000F1F70196883C9105C1F78091C00087FF64
:10F4C000EDCF1092020151C08FEF809304010FC065
:10F4D0008091050180958093050180E090E0E0ED4A
:10F4E000F7E03197F1F70196883C9105C1F78091DB
:10F4F000C00087FFEDCF1092050137C08FEF8093DA
:10F5000007010FC08091080180958093080180E079
:10F5100090E0E0EDF7E03197F1F70196883C910536
:10F52000C1F78091C00087FFEDCF109208011DC088
:10F530008FEF80930A010FC080910B01809580931B
:10F540000B0180E090E0E0EDF7E03197F1F70196F4
:10F55000883C9105C1F78091C00087FFEDCF1092E4
:10F560000B0103C085E292EEEEC98091C00087FFD7
:10F57000FCCF8091C600EAC988E392EEE4C98CE131
:10F5800091EEE1C988249924933011F1943028F444
:10F59000913089F09230B8F408C0953061F195301F
:10F5A000F0F0963009F048C043C02B3109F042C951
:10F5B00091E06BE13FC96227C15DDE4F2883CF52E6
:10F5C000D14092E037C9B22FA0E0622793E032C960
:10F5D000822F90E0A82BB92B622794E02BC92E3004
:10F5E00009F039C3622795E0C05DDE4F19821882A9
:10F5F000C053D1401FC9E1E0F0E0EC0FFD1FC05D3A
:10F60000DE4F08811981C053D140E00FF11F2083E4
:10F610000F5F1F4FC05DDE4F19830883C053D14079
:10F6200062270A171B0709F005C9D80196E002C92D
:10F63000261709F010C303C0973009F0FBC87724E0
:10F640009981933109F412C19431C8F4963009F4C8
:10F65000D8C0973050F4923009F406C1933009F4C1
:10F660006DC0913009F059C253C0913109F477C08F
:10F67000923108F0BBC0903109F04FC2F5C098310B
:10F6800009F487C0993150F4953109F4EFC09531F0
:10F6900008F4C6C1963109F040C2C2C19A3109F4DA
:10F6A0006CC09A3108F491C09B3109F45BC09D3164
:10F6B00009F033C29D81903359F48F81882311F46E
:10F6C0009EE11CC0813011F091E018C098E916C08D
:10F6D000892F807591F0903539F4E0E0F0E089E011
:10F6E0008093570094910AC0983539F4E3E0F0E034
:10F6F00089E080935700949101C090E01A821B82A8
:10F700008D818C831D829E831F8227E030E009C299
:10F710001A8288E08B8381E48C8386E58D8382E581
:10F720008E8389E48F8383E5888780E589878FE5E9
:10F730008A8782E38B872BE030E0F3C18A818139AD
:10F7400041F0823941F0803911F48FE005C080E04A
:10F7500003C082E001C08AE01A828B8344C0772410
:10F76000739482C08D81882311F48EE12CC0813086
:10F7700011F081E028C088E926C01A82E1E0F0E0BB
:10F7800089E08093570084918B831C8224E030E0D1
:10F79000C8C18B81803589F48C81883039F4E2E0EE
:10F7A000F0E089E08093570084910DC0E0E0F0E044
:10F7B00089E080935700849106C0E3E0F0E089E09F
:10F7C0008093570084911A82DFCF8D81836C99E0FA
:10F7D000E1E0F0E0082E90935700E89507B600FCB2
:10F7E000FDCF1A821B8223E030E09BC180EC8A832C
:10F7F000CE5CDE4F188219821A821B82C253D1401E
:10F800008EC18A8190E0A0E0B0E0582F44273327D2
:10F8100022278B8190E0A0E0B0E0DC0199278827C7
:10F82000282B392B4A2B5B2B8D8190E0A0E0B0E098
:10F83000282B392B4A2B5B2B8C8190E0A0E0B0E089
:10F84000BA2FA92F982F8827282B392B4A2B5B2BCF
:10F85000220F331F441F551FC05EDE4F288339839C
:10F860004A835B83C052D1401A8259C13A81C95C34
:10F87000DE4F3883C753D140CA5CDE4F1882C6536F
:10F88000D1408B81C82EDD24CA5CDE4F488159816E
:10F89000C653D140C42AD52A933109F082C0CE5C28
:10F8A000DE4F88819981AA81BB81C253D1408050AB
:10F8B000904CA340B04030F583E0CE5CDE4FE88052
:10F8C000F9800A811B81C253D140F70100935B008C
:10F8D00080935700E89507B600FCFDCFCE5CDE4F65
:10F8E000088119812A813B81C253D14000501F4FAA
:10F8F0002F4F3F4FCE5CDE4F088319832A833B8313
:10F90000C253D140C05EDE4F488159816A817B81FC
:10F91000C052D140DE011B9631E08C9111962C91A2
:10F9200011971296C75CDE4F2883C953D140C85C3B
:10F93000DE4F1882C853D14090E0C85CDE4FE881AA
:10F94000F981C853D1408E2B9F2B0C01FA01609393
:10F950005B0030935700E89511244E5F5F4F6F4F67
:10F960007F4F0EEFE02E0FEFF02ECE0CDF1CC114F8
:10F97000D10499F685E0C05EDE4F088119812A81A5
:10F980003B81C052D140F80120935B008093570027
:10F99000E89507B600FCFDCF81E180935700E8951C
:10F9A00035C0C05EDE4F88819981AA81BB81C0527B
:10F9B000D140B695A795979587957C018601ABE0D8
:10F9C000AA2EB12CAC0EBD1E0BC0D5016D915D01F0
:10F9D000C7010F947FFE0894E11CF11C01501040F8
:10F9E0000115110591F7A60160E070E0440F551F65
:10F9F000661F771FC05EDE4FE880F9800A811B8199
:10FA0000C052D1404E0D5F1D601F711F1A82C05E33
:10FA1000DE4F488359836A837B83C052D1407FC0C5
:10FA2000FA80C55CDE4FF882CB53D140C65CDE4F16
:10FA30001882CA53D1408B81C82EDD24C65CDE4FAC
:10FA400008811981CA53D140C02AD12A1A828981DA
:10FA5000BE016D5F7F4F843121F59601C05EDE4FA0
:10FA6000E880F9800A811B81C052D1400BBFF701A9
:10FA700087919691DB018C9311969C936E5F7F4FDB
:10FA8000D801C7010296A11DB11DC05EDE4F88835B
:10FA90009983AA83BB83C052D14022503040F1F6F3
:10FAA00036C0C05EDE4F288139814A815B81C052F9
:10FAB000D1400894C108D108760100E010E0089414
:10FAC000C11CD11C0894E11CF11C011D111DE20E8A
:10FAD000F31E041F151F21BDBB27A52F942F832FB5
:10FAE00082BD2F5F3F4F4F4F5F4FF89A80B5DB01CC
:10FAF0008D93BD012E153F054007510761F7C05E8C
:10FB0000DE4F288339834A835B83C052D1409601FC
:10FB10002D5F3F4FFB01108204C080EC8A8322E0FE
:10FB200030E08BE18093C6008091C00086FFFCCF5F
:10FB30008091C00080648093C000C15DDE4FF88179
:10FB4000CF52D140F093C6008091C00086FFFCCF19
:10FB50008091C00080648093C000432F3093C60022
:10FB60008091C00086FFFCCF8091C00080648093AC
:10FB7000C000922F2093C6008091C00086FFFCCF6A
:10FB80008091C00080648093C0008EE08093C600A6
:10FB90008091C00086FFFCCF8091C000806480937C
:10FBA000C00065E1C15DDE4FE880CF52D1406E25D7
:10FBB00069276427FE01319610C090819093C6009A
:10FBC0008091C00086FFFCCF31968091C000806498
:10FBD0008093C0006927215030402115310569F715
:10FBE0006093C6008091C00086FFFCCF8091C0006A
:10FBF00080648093C00085B1805885B9772081F4F6
:10FC0000C15DDE4F0881CF52D1400F5FC15DDE4F35
:10FC10000883CF52D14090E0A0E0B0E00D941AF4F8
:10FC200027982F9880E090E020ED37E0F901319798
:10FC3000F1F7019684369105C9F700008091C00064
:10FC40008D7F8093C00081E180935700E895EE2777
:10FC5000FF270994FFCF90E00D941AF497FB092E2B
:10FC600007260AD077FD04D02ED006D000201AF443
:10FC7000709561957F4F0895F6F7909581959F4F08
:10FC80000895A1E21A2EAA1BBB1BFD010DC0AA1FDD
:10FC9000BB1FEE1FFF1FA217B307E407F50720F0F5
:10FCA000A21BB30BE40BF50B661F771F881F991F70
:10FCB0001A9469F760957095809590959B01AC01B9
:10FCC000BD01CF010895AA1BBB1B51E107C0AA1FAC
:10FCD000BB1FA617B70710F0A61BB70B881F991FED
:10FCE0005A95A9F780959095BC01CD010895F99991
:10FCF000FECF92BD81BDF89A992780B50895262F31
:10FD0000F999FECF1FBA92BD81BD20BD0FB6F89400
:0EFD1000FA9AF99A0FBE01960895F894FFCF63
:00000001FF
